:1000000012C021C020C01FC01EC01DC02FC03BC0D9
:100010001AC019C018C017C016C015C014C013C02C
:1000200012C011C010C011241FBECFE5D4E0DEBF46
:10003000CDBF10E0A0E6B0E001C01D92A137B1072E
:10004000E1F7FED03AC3DCCF83E08FBD8AE18EBDFD
:100050001DBC1CBC17BC16BC89E18BBD88EC8ABDDD
:1000600088E189BF8FE387BB789408951F920F9230
:100070000FB60F92112418BA1DBC1CBC0F900FBEF6
:100080000F901F9018951F920F920FB60F92112488
:100090008F939F93809165009091660082309105C7
:1000A00049F18330910534F4009771F0019709F01C
:1000B00052C015C08430910599F1843091052CF11E
:1000C000059709F048C03BC08091610089BD8091CF
:1000D0006A0088BD81E088BB81E090E02BC0809100
:1000E000640089BD8091700088BD82E088BB82E099
:1000F00090E020C080916E0089BD80916B0088BD2A
:1001000084E088BB83E090E015C08091670089BDE2
:100110008091690088BD88E088BB84E090E00AC0D7
:100120008091680089BD80916D0088BD80E188BBA9
:1001300085E090E090936600809365000CC080910C
:100140006F0089BD8091630088BD80E288BB1092FA
:100150006600109265009F918F910F900FBE0F90D7
:100160001F901895CF93DF93EA0120E030E048E438
:1001700052E422D12EEE3CE74DE351E43BD220E0A5
:1001800030E842E255E418D17BD1362F272FC23018
:10019000D10539F46093700070936200709364002D
:1001A0001DC0C330D10539F460936B0070936200B9
:1001B00070936E001DC0209739F4609363007093B4
:1001C000620070936F001CC0C130D10539F4609398
:1001D0006A00709362007093610012C0C430D10550
:1001E00039F430936900209362002093670008C0BF
:1001F000259731F430936D002093620020936800BE
:10020000DF91CF91089560E070E084EB92E440E0EC
:1002100050E0A8DF60E070E080EA92E441E050E066
:10022000A1DF60E070E084EB92E442E050E09ADF0E
:1002300060E070E084EB92E443E050E093DF0895E7
:100240008F929F92AF92BF92CF92DF92EF92FF92E6
:100250001F93CF93DF9314BA8FE085BBF5DED3DF16
:1002600080E29EE42CE231E0F9013197F1F7019749
:10027000D9F79899FECF989BFECF10E03AE5832EF0
:10028000912C28ECE22E2FEAF22E98ECA92E9FEA70
:10029000B92E8CE2C82E81E0D82E0FC0B401611BAC
:1002A0007109882777FD8095982F18D142E050E09A
:1002B00059DFC7010197F1F71F5F143278F3CAE5E0
:1002C000D0E0BE01882777FD8095982F07D140E0C8
:1002D00050E048DFC7010197F1F72197C034D105FD
:1002E00081F7CAE5D0E0BE01882777FD8095982F79
:1002F000F5D041E050E036DF80E991E0F60131973A
:10030000F1F70197D9F72197C633D10561F7C1E419
:10031000D0E0BE01882777FD8095982FDFD042E09E
:1003200050E020DFC7010197F1F72196C036D105D3
:1003300081F7CAE5D0E0BE01882777FD8095982F28
:10034000CDD043E050E00EDFC7010197F1F72196D1
:10035000C338D10581F760E070E084EB92E441E0BE
:1003600050E000DFC5010197F1F7CAE5D0E0BE011A
:10037000882777FD8095982FB1D040E050E0F2DEDD
:10038000C7010197F1F72196C036D10581F7C2E880
:10039000D0E0BE01882777FD8095982F9FD043E05D
:1003A00050E0E0DEC7010197F1F72197C935D1058B
:1003B00081F710E073CF5058BB27AA270ED0E0C0BA
:1003C000D1D030F0D6D020F031F49F3F11F41EF49C
:1003D000C6C00EF4E095E7FBBCC0E92FE2D080F385
:1003E000BA17620773078407950718F071F49EF532
:1003F000FAC00EF4E0950B2EBA2FA02D0B01B90117
:1004000090010C01CA01A0011124FF27591B99F08A
:10041000593F50F4503E68F11A16F040A22F232F96
:10042000342F4427585FF3CF469537952795A795E6
:10043000F0405395C9F77EF41F16BA0B620B730B8D
:10044000840BBAF09150A1F0FF0FBB1F661F771FFE
:10045000881FC2F70EC0BA0F621F731F841F48F4B3
:10046000879577956795B795F7959E3F08F0B3CF39
:100470009395880F08F09927EE0F97958795089523
:1004800098D088F09F5790F0B92F9927B751A0F0D6
:10049000D1F0660F771F881F991F1AF0BA95C9F718
:1004A00012C0B13081F09FD0B1E008959CC0672F99
:1004B000782F8827B85F39F0B93FCCF386957795C8
:1004C0006795B395D9F73EF49095809570956195B1
:1004D0007F4F8F4F9F4F0895E89409C097FB3EF4DC
:1004E00090958095709561957F4F8F4F9F4F992381
:1004F000A9F0F92F96E9BB279395F69587957795FF
:100500006795B795F111F8CFFAF4BB0F11F460FFBE
:100510001BC06F5F7F4F8F4F9F4F16C0882311F016
:1005200096E911C0772321F09EE8872F762F05C02A
:10053000662371F096E8862F70E060E02AF09A95C5
:10054000660F771F881FDAF7880F9695879597F9BA
:10055000089597F99F6780E870E060E008959FEF45
:1005600080EC089500240A9416161706180609064A
:10057000089500240A941216130614060506089519
:10058000092E0394000C11F4882352F0BB0F40F4A1
:10059000BF2B11F460FF04C06F5F7F4F8F4F9F4FE1
:1005A000089557FD9058440F551F59F05F3F71F063
:1005B0004795880F97FB991F61F09F3F79F08795CA
:1005C0000895121613061406551FF2CF4695F1DF53
:1005D00008C0161617061806991FF1CF86957105E3
:1005E000610508940895E894BB2766277727CB0117
:1005F00097F908950BD0C4CFB5DF28F0BADF18F013
:10060000952309F0A6CFABCF1124EECFCADFA0F31C
:10061000959FD1F3950F50E0551F629FF001729F97
:10062000BB27F00DB11D639FAA27F00DB11DAA1FB6
:10063000649F6627B00DA11D661F829F2227B00D03
:10064000A11D621F739FB00DA11D621F839FA00D8E
:10065000611D221F749F3327A00D611D231F849FDE
:10066000600D211D822F762F6A2F11249F57504035
:100670008AF0E1F088234AF0EE0FFF1FBB1F661FD0
:10068000771F881F91505040A9F79E3F510570F089
:1006900060CFAACF5F3FECF3983EDCF38695779569
:1006A0006795B795F795E7959F5FC1F7FE2B880F84
:0E06B000911D9695879597F90895F894FFCFC0
:00000001FF
